{
  "address": "0xa9a9cD1984C10156dc1B7737D8DE1198F235A7b2",
  "abi": [
    {
      "inputs": [
        {
          "internalType": "address",
          "name": "_cryptoDevTokenAddress",
          "type": "address"
        }
      ],
      "stateMutability": "nonpayable",
      "type": "constructor"
    },
    {
      "anonymous": false,
      "inputs": [
        {
          "indexed": true,
          "internalType": "address",
          "name": "owner",
          "type": "address"
        },
        {
          "indexed": true,
          "internalType": "address",
          "name": "spender",
          "type": "address"
        },
        {
          "indexed": false,
          "internalType": "uint256",
          "name": "value",
          "type": "uint256"
        }
      ],
      "name": "Approval",
      "type": "event"
    },
    {
      "anonymous": false,
      "inputs": [
        {
          "indexed": true,
          "internalType": "address",
          "name": "from",
          "type": "address"
        },
        {
          "indexed": true,
          "internalType": "address",
          "name": "to",
          "type": "address"
        },
        {
          "indexed": false,
          "internalType": "uint256",
          "name": "value",
          "type": "uint256"
        }
      ],
      "name": "Transfer",
      "type": "event"
    },
    {
      "inputs": [
        {
          "internalType": "uint256",
          "name": "_amount",
          "type": "uint256"
        }
      ],
      "name": "addLiquidity",
      "outputs": [
        {
          "internalType": "uint256",
          "name": "",
          "type": "uint256"
        }
      ],
      "stateMutability": "payable",
      "type": "function"
    },
    {
      "inputs": [
        {
          "internalType": "address",
          "name": "owner",
          "type": "address"
        },
        {
          "internalType": "address",
          "name": "spender",
          "type": "address"
        }
      ],
      "name": "allowance",
      "outputs": [
        {
          "internalType": "uint256",
          "name": "",
          "type": "uint256"
        }
      ],
      "stateMutability": "view",
      "type": "function"
    },
    {
      "inputs": [
        {
          "internalType": "address",
          "name": "spender",
          "type": "address"
        },
        {
          "internalType": "uint256",
          "name": "amount",
          "type": "uint256"
        }
      ],
      "name": "approve",
      "outputs": [
        {
          "internalType": "bool",
          "name": "",
          "type": "bool"
        }
      ],
      "stateMutability": "nonpayable",
      "type": "function"
    },
    {
      "inputs": [
        {
          "internalType": "address",
          "name": "account",
          "type": "address"
        }
      ],
      "name": "balanceOf",
      "outputs": [
        {
          "internalType": "uint256",
          "name": "",
          "type": "uint256"
        }
      ],
      "stateMutability": "view",
      "type": "function"
    },
    {
      "inputs": [],
      "name": "cryptoDevTokenAddress",
      "outputs": [
        {
          "internalType": "address",
          "name": "",
          "type": "address"
        }
      ],
      "stateMutability": "view",
      "type": "function"
    },
    {
      "inputs": [
        {
          "internalType": "uint256",
          "name": "_tokensSold",
          "type": "uint256"
        },
        {
          "internalType": "uint256",
          "name": "_minEth",
          "type": "uint256"
        }
      ],
      "name": "cryptoDevTokenToEth",
      "outputs": [],
      "stateMutability": "nonpayable",
      "type": "function"
    },
    {
      "inputs": [],
      "name": "decimals",
      "outputs": [
        {
          "internalType": "uint8",
          "name": "",
          "type": "uint8"
        }
      ],
      "stateMutability": "view",
      "type": "function"
    },
    {
      "inputs": [
        {
          "internalType": "address",
          "name": "spender",
          "type": "address"
        },
        {
          "internalType": "uint256",
          "name": "subtractedValue",
          "type": "uint256"
        }
      ],
      "name": "decreaseAllowance",
      "outputs": [
        {
          "internalType": "bool",
          "name": "",
          "type": "bool"
        }
      ],
      "stateMutability": "nonpayable",
      "type": "function"
    },
    {
      "inputs": [
        {
          "internalType": "uint256",
          "name": "_minTokens",
          "type": "uint256"
        }
      ],
      "name": "ethToCryptoDevToken",
      "outputs": [],
      "stateMutability": "payable",
      "type": "function"
    },
    {
      "inputs": [
        {
          "internalType": "uint256",
          "name": "inputAmount",
          "type": "uint256"
        },
        {
          "internalType": "uint256",
          "name": "inputReserve",
          "type": "uint256"
        },
        {
          "internalType": "uint256",
          "name": "outputReserve",
          "type": "uint256"
        }
      ],
      "name": "getAmountOfTokens",
      "outputs": [
        {
          "internalType": "uint256",
          "name": "",
          "type": "uint256"
        }
      ],
      "stateMutability": "pure",
      "type": "function"
    },
    {
      "inputs": [],
      "name": "getReserve",
      "outputs": [
        {
          "internalType": "uint256",
          "name": "",
          "type": "uint256"
        }
      ],
      "stateMutability": "view",
      "type": "function"
    },
    {
      "inputs": [
        {
          "internalType": "address",
          "name": "spender",
          "type": "address"
        },
        {
          "internalType": "uint256",
          "name": "addedValue",
          "type": "uint256"
        }
      ],
      "name": "increaseAllowance",
      "outputs": [
        {
          "internalType": "bool",
          "name": "",
          "type": "bool"
        }
      ],
      "stateMutability": "nonpayable",
      "type": "function"
    },
    {
      "inputs": [],
      "name": "name",
      "outputs": [
        {
          "internalType": "string",
          "name": "",
          "type": "string"
        }
      ],
      "stateMutability": "view",
      "type": "function"
    },
    {
      "inputs": [
        {
          "internalType": "uint256",
          "name": "_amount",
          "type": "uint256"
        }
      ],
      "name": "removeLiquidity",
      "outputs": [
        {
          "internalType": "uint256",
          "name": "",
          "type": "uint256"
        },
        {
          "internalType": "uint256",
          "name": "",
          "type": "uint256"
        }
      ],
      "stateMutability": "nonpayable",
      "type": "function"
    },
    {
      "inputs": [],
      "name": "symbol",
      "outputs": [
        {
          "internalType": "string",
          "name": "",
          "type": "string"
        }
      ],
      "stateMutability": "view",
      "type": "function"
    },
    {
      "inputs": [],
      "name": "totalSupply",
      "outputs": [
        {
          "internalType": "uint256",
          "name": "",
          "type": "uint256"
        }
      ],
      "stateMutability": "view",
      "type": "function"
    },
    {
      "inputs": [
        {
          "internalType": "address",
          "name": "to",
          "type": "address"
        },
        {
          "internalType": "uint256",
          "name": "amount",
          "type": "uint256"
        }
      ],
      "name": "transfer",
      "outputs": [
        {
          "internalType": "bool",
          "name": "",
          "type": "bool"
        }
      ],
      "stateMutability": "nonpayable",
      "type": "function"
    },
    {
      "inputs": [
        {
          "internalType": "address",
          "name": "from",
          "type": "address"
        },
        {
          "internalType": "address",
          "name": "to",
          "type": "address"
        },
        {
          "internalType": "uint256",
          "name": "amount",
          "type": "uint256"
        }
      ],
      "name": "transferFrom",
      "outputs": [
        {
          "internalType": "bool",
          "name": "",
          "type": "bool"
        }
      ],
      "stateMutability": "nonpayable",
      "type": "function"
    }
  ],
  "transactionHash": "0x6b29b4471c077630c7c0309c131d53458037f909fddc1c65a83adaab720d9e77",
  "args": [
    "0xdd951F0775304227E2039847304453Bd7cA81C65"
  ],
  "numDeployments": 1,
  "solcInputHash": "64f0577091189334ffd8417ddd5dab11",
  "bytecode": "0x60806040523480156200001157600080fd5b50604051620017b4380380620017b48339810160408190526200003491620001d9565b604080518082018252601281527121b93cb83a37a232bb102628102a37b5b2b760711b602080830191825283518085019094526004845263043444c560e41b9084015281519192916200008a9160039162000133565b508051620000a090600490602084019062000133565b5050506001600160a01b0381166200010d5760405162461bcd60e51b815260206004820152602660248201527f546f6b656e2061646472657373207061737365642069732061206e756c6c206160448201526564647265737360d01b606482015260840160405180910390fd5b600580546001600160a01b0319166001600160a01b039290921691909117905562000246565b828054620001419062000209565b90600052602060002090601f016020900481019282620001655760008555620001b0565b82601f106200018057805160ff1916838001178555620001b0565b82800160010185558215620001b0579182015b82811115620001b057825182559160200191906001019062000193565b50620001be929150620001c2565b5090565b5b80821115620001be5760008155600101620001c3565b600060208284031215620001eb578081fd5b81516001600160a01b038116811462000202578182fd5b9392505050565b600181811c908216806200021e57607f821691505b602082108114156200024057634e487b7160e01b600052602260045260246000fd5b50919050565b61155e80620002566000396000f3fe6080604052600436106101095760003560e01c806370a08231116100955780639e7a2922116100645780639e7a2922146102ce578063a457c2d714610306578063a9059cbb14610326578063dd62ed3e14610346578063f0566bb71461038c57600080fd5b806370a082311461022e5780637386479e1461026457806395d89b41146102845780639c8f9f231461029957600080fd5b8063313ce567116100dc578063313ce567146101a857806339509351146101c457806351c6590a146101e457806359bf5d39146101f75780636c25a25a1461020c57600080fd5b806306fdde031461010e578063095ea7b31461013957806318160ddd1461016957806323b872dd14610188575b600080fd5b34801561011a57600080fd5b5061012361039f565b6040516101309190611416565b60405180910390f35b34801561014557600080fd5b50610159610154366004611351565b610431565b6040519015158152602001610130565b34801561017557600080fd5b506002545b604051908152602001610130565b34801561019457600080fd5b506101596101a3366004611316565b610449565b3480156101b457600080fd5b5060405160128152602001610130565b3480156101d057600080fd5b506101596101df366004611351565b61046d565b61017a6101f236600461139a565b6104ac565b34801561020357600080fd5b5061017a6106c7565b34801561021857600080fd5b5061022c6102273660046113ca565b610748565b005b34801561023a57600080fd5b5061017a6102493660046112c3565b6001600160a01b031660009081526020819052604090205490565b34801561027057600080fd5b5061017a61027f3660046113eb565b6108dd565b34801561029057600080fd5b50610123610986565b3480156102a557600080fd5b506102b96102b436600461139a565b610995565b60408051928352602083019190915201610130565b3480156102da57600080fd5b506005546102ee906001600160a01b031681565b6040516001600160a01b039091168152602001610130565b34801561031257600080fd5b50610159610321366004611351565b610b65565b34801561033257600080fd5b50610159610341366004611351565b610bf7565b34801561035257600080fd5b5061017a6103613660046112e4565b6001600160a01b03918216600090815260016020908152604080832093909416825291909152205490565b61022c61039a36600461139a565b610c05565b6060600380546103ae906114d7565b80601f01602080910402602001604051908101604052809291908181526020018280546103da906114d7565b80156104275780601f106103fc57610100808354040283529160200191610427565b820191906000526020600020905b81548152906001019060200180831161040a57829003601f168201915b5050505050905090565b60003361043f818585610d03565b5060019392505050565b600033610457858285610e28565b610462858585610eb4565b506001949350505050565b3360008181526001602090815260408083206001600160a01b038716845290915281205490919061043f90829086906104a7908790611469565b610d03565b60008047816104b96106c7565b6005549091506001600160a01b031681610566576040516323b872dd60e01b8152336004820152306024820152604481018790526001600160a01b038216906323b872dd90606401602060405180830381600087803b15801561051b57600080fd5b505af115801561052f573d6000803e3d6000fd5b505050506040513d601f19601f82011682018060405250810190610553919061137a565b508293506105613385611082565b6106bd565b600061057234856114c0565b905060008161058185346114a1565b61058b9190611481565b9050808810156106085760405162461bcd60e51b815260206004820152603b60248201527f416d6f756e74206f6620746f6b656e73206973206c657373207468616e20746860448201527f6520616d6f756e74206f6620746f6b656e73207265717569726564000000000060648201526084015b60405180910390fd5b6040516323b872dd60e01b8152336004820152306024820152604481018290526001600160a01b038416906323b872dd90606401602060405180830381600087803b15801561065657600080fd5b505af115801561066a573d6000803e3d6000fd5b505050506040513d601f19601f8201168201806040525081019061068e919061137a565b50813461069a60025490565b6106a491906114a1565b6106ae9190611481565b95506106ba3387611082565b50505b5091949350505050565b6005546040516370a0823160e01b81523060048201526000916001600160a01b0316906370a082319060240160206040518083038186803b15801561070b57600080fd5b505afa15801561071f573d6000803e3d6000fd5b505050506040513d601f19601f8201168201806040525081019061074391906113b2565b905090565b60006107526106c7565b905060006107618483476108dd565b9050828110156107b35760405162461bcd60e51b815260206004820152601a60248201527f496e73756666696369656e74206f757470757420616d6f756e7400000000000060448201526064016105ff565b6005546040516323b872dd60e01b8152336004820152306024820152604481018690526001600160a01b03909116906323b872dd90606401602060405180830381600087803b15801561080557600080fd5b505af1158015610819573d6000803e3d6000fd5b505050506040513d601f19601f8201168201806040525081019061083d919061137a565b50604051600090339083908381818185875af1925050503d8060008114610880576040519150601f19603f3d011682016040523d82523d6000602084013e610885565b606091505b50509050806108d65760405162461bcd60e51b815260206004820181905260248201527f4661696c656420746f2073656e6420657468657220746f20746865207573657260448201526064016105ff565b5050505050565b600080831180156108ee5750600082115b61093a5760405162461bcd60e51b815260206004820152601f60248201527f5265736572766573206d7573742062652067726561746572207468616e20300060448201526064016105ff565b60006109478560636114a1565b9050600061095584836114a1565b90506000826109658760646114a1565b61096f9190611469565b905061097b8183611481565b979650505050505050565b6060600480546103ae906114d7565b600080600083116109e85760405162461bcd60e51b815260206004820152601e60248201527f5f616d6f756e74206d7573742062652067726561746572207468616e2030000060448201526064016105ff565b60006109f360025490565b905047600082610a0387846114a1565b610a0d9190611481565b905060008387610a1b6106c7565b610a2591906114a1565b610a2f9190611481565b9050610a3b3388611161565b604051600090339084908381818185875af1925050503d8060008114610a7d576040519150601f19603f3d011682016040523d82523d6000602084013e610a82565b606091505b5050905080610ad35760405162461bcd60e51b815260206004820181905260248201527f4661696c656420746f2073656e6420657468657220746f20746865207573657260448201526064016105ff565b60055460405163a9059cbb60e01b8152336004820152602481018490526001600160a01b039091169063a9059cbb90604401602060405180830381600087803b158015610b1f57600080fd5b505af1158015610b33573d6000803e3d6000fd5b505050506040513d601f19601f82011682018060405250810190610b57919061137a565b509197909650945050505050565b3360008181526001602090815260408083206001600160a01b038716845290915281205490919083811015610bea5760405162461bcd60e51b815260206004820152602560248201527f45524332303a2064656372656173656420616c6c6f77616e63652062656c6f77604482015264207a65726f60d81b60648201526084016105ff565b6104628286868403610d03565b60003361043f818585610eb4565b6000610c0f6106c7565b90506000610c2734610c2181476114c0565b846108dd565b905082811015610c795760405162461bcd60e51b815260206004820152601a60248201527f496e73756666696369656e74206f757470757420616d6f756e7400000000000060448201526064016105ff565b60055460405163a9059cbb60e01b8152336004820152602481018390526001600160a01b039091169063a9059cbb90604401602060405180830381600087803b158015610cc557600080fd5b505af1158015610cd9573d6000803e3d6000fd5b505050506040513d601f19601f82011682018060405250810190610cfd919061137a565b50505050565b6001600160a01b038316610d655760405162461bcd60e51b8152602060048201526024808201527f45524332303a20617070726f76652066726f6d20746865207a65726f206164646044820152637265737360e01b60648201526084016105ff565b6001600160a01b038216610dc65760405162461bcd60e51b815260206004820152602260248201527f45524332303a20617070726f766520746f20746865207a65726f206164647265604482015261737360f01b60648201526084016105ff565b6001600160a01b0383811660008181526001602090815260408083209487168084529482529182902085905590518481527f8c5be1e5ebec7d5bd14f71427d1e84f3dd0314c0f7b2291e5b200ac8c7c3b92591015b60405180910390a3505050565b6001600160a01b038381166000908152600160209081526040808320938616835292905220546000198114610cfd5781811015610ea75760405162461bcd60e51b815260206004820152601d60248201527f45524332303a20696e73756666696369656e7420616c6c6f77616e636500000060448201526064016105ff565b610cfd8484848403610d03565b6001600160a01b038316610f185760405162461bcd60e51b815260206004820152602560248201527f45524332303a207472616e736665722066726f6d20746865207a65726f206164604482015264647265737360d81b60648201526084016105ff565b6001600160a01b038216610f7a5760405162461bcd60e51b815260206004820152602360248201527f45524332303a207472616e7366657220746f20746865207a65726f206164647260448201526265737360e81b60648201526084016105ff565b6001600160a01b03831660009081526020819052604090205481811015610ff25760405162461bcd60e51b815260206004820152602660248201527f45524332303a207472616e7366657220616d6f756e7420657863656564732062604482015265616c616e636560d01b60648201526084016105ff565b6001600160a01b03808516600090815260208190526040808220858503905591851681529081208054849290611029908490611469565b92505081905550826001600160a01b0316846001600160a01b03167fddf252ad1be2c89b69c2b068fc378daa952ba7f163c4a11628f55a4df523b3ef8460405161107591815260200190565b60405180910390a3610cfd565b6001600160a01b0382166110d85760405162461bcd60e51b815260206004820152601f60248201527f45524332303a206d696e7420746f20746865207a65726f20616464726573730060448201526064016105ff565b80600260008282546110ea9190611469565b90915550506001600160a01b03821660009081526020819052604081208054839290611117908490611469565b90915550506040518181526001600160a01b038316906000907fddf252ad1be2c89b69c2b068fc378daa952ba7f163c4a11628f55a4df523b3ef9060200160405180910390a35050565b6001600160a01b0382166111c15760405162461bcd60e51b815260206004820152602160248201527f45524332303a206275726e2066726f6d20746865207a65726f206164647265736044820152607360f81b60648201526084016105ff565b6001600160a01b038216600090815260208190526040902054818110156112355760405162461bcd60e51b815260206004820152602260248201527f45524332303a206275726e20616d6f756e7420657863656564732062616c616e604482015261636560f01b60648201526084016105ff565b6001600160a01b03831660009081526020819052604081208383039055600280548492906112649084906114c0565b90915550506040518281526000906001600160a01b038516907fddf252ad1be2c89b69c2b068fc378daa952ba7f163c4a11628f55a4df523b3ef90602001610e1b565b80356001600160a01b03811681146112be57600080fd5b919050565b6000602082840312156112d4578081fd5b6112dd826112a7565b9392505050565b600080604083850312156112f6578081fd5b6112ff836112a7565b915061130d602084016112a7565b90509250929050565b60008060006060848603121561132a578081fd5b611333846112a7565b9250611341602085016112a7565b9150604084013590509250925092565b60008060408385031215611363578182fd5b61136c836112a7565b946020939093013593505050565b60006020828403121561138b578081fd5b815180151581146112dd578182fd5b6000602082840312156113ab578081fd5b5035919050565b6000602082840312156113c3578081fd5b5051919050565b600080604083850312156113dc578182fd5b50508035926020909101359150565b6000806000606084860312156113ff578283fd5b505081359360208301359350604090920135919050565b6000602080835283518082850152825b8181101561144257858101830151858201604001528201611426565b818111156114535783604083870101525b50601f01601f1916929092016040019392505050565b6000821982111561147c5761147c611512565b500190565b60008261149c57634e487b7160e01b81526012600452602481fd5b500490565b60008160001904831182151516156114bb576114bb611512565b500290565b6000828210156114d2576114d2611512565b500390565b600181811c908216806114eb57607f821691505b6020821081141561150c57634e487b7160e01b600052602260045260246000fd5b50919050565b634e487b7160e01b600052601160045260246000fdfea2646970667358221220b407678a821983dec544ae864e85ac51ad5abda43465d2be9f70d5afc90c475f64736f6c63430008040033",
  "devdoc": {
    "kind": "dev",
    "methods": {
      "addLiquidity(uint256)": {
        "details": "Adds liquidity to the exchange "
      },
      "allowance(address,address)": {
        "details": "See {IERC20-allowance}."
      },
      "approve(address,uint256)": {
        "details": "See {IERC20-approve}. NOTE: If `amount` is the maximum `uint256`, the allowance is not updated on `transferFrom`. This is semantically equivalent to an infinite approval. Requirements: - `spender` cannot be the zero address."
      },
      "balanceOf(address)": {
        "details": "See {IERC20-balanceOf}."
      },
      "cryptoDevTokenToEth(uint256,uint256)": {
        "details": "Swaps CryptoDev Tokens to Ether "
      },
      "decimals()": {
        "details": "Returns the number of decimals used to get its user representation. For example, if `decimals` equals `2`, a balance of `505` tokens should be displayed to a user as `5.05` (`505 / 10 ** 2`). Tokens usually opt for a value of 18, imitating the relationship between Ether and Wei. This is the value {ERC20} uses, unless this function is overridden; NOTE: This information is only used for _display_ purposes: it in no way affects any of the arithmetic of the contract, including {IERC20-balanceOf} and {IERC20-transfer}."
      },
      "decreaseAllowance(address,uint256)": {
        "details": "Atomically decreases the allowance granted to `spender` by the caller. This is an alternative to {approve} that can be used as a mitigation for problems described in {IERC20-approve}. Emits an {Approval} event indicating the updated allowance. Requirements: - `spender` cannot be the zero address. - `spender` must have allowance for the caller of at least `subtractedValue`."
      },
      "ethToCryptoDevToken(uint256)": {
        "details": "Swaps Ether to CryptoDev Tokens "
      },
      "getAmountOfTokens(uint256,uint256,uint256)": {
        "details": "Returns the amount Eth/ Crypto Dev tokens that would be returned to the user in the swap "
      },
      "getReserve()": {
        "details": "Returns the amount of 'Crypto Dev Tokens' held by the contract"
      },
      "increaseAllowance(address,uint256)": {
        "details": "Atomically increases the allowance granted to `spender` by the caller. This is an alternative to {approve} that can be used as a mitigation for problems described in {IERC20-approve}. Emits an {Approval} event indicating the updated allowance. Requirements: - `spender` cannot be the zero address."
      },
      "name()": {
        "details": "Returns the name of the token."
      },
      "removeLiquidity(uint256)": {
        "details": "Removes liquidity from the exchange "
      },
      "symbol()": {
        "details": "Returns the symbol of the token, usually a shorter version of the name."
      },
      "totalSupply()": {
        "details": "See {IERC20-totalSupply}."
      },
      "transfer(address,uint256)": {
        "details": "See {IERC20-transfer}. Requirements: - `to` cannot be the zero address. - the caller must have a balance of at least `amount`."
      },
      "transferFrom(address,address,uint256)": {
        "details": "See {IERC20-transferFrom}. Emits an {Approval} event indicating the updated allowance. This is not required by the EIP. See the note at the beginning of {ERC20}. NOTE: Does not update the allowance if the current allowance is the maximum `uint256`. Requirements: - `from` and `to` cannot be the zero address. - `from` must have a balance of at least `amount`. - the caller must have allowance for ``from``'s tokens of at least `amount`."
      }
    },
    "version": 1
  },
  "userdoc": {
    "kind": "user",
    "methods": {},
    "version": 1
  },
  "storageLayout": {
    "storage": [
      {
        "astId": 15,
        "contract": "contracts/Exchange.sol:Exchange",
        "label": "_balances",
        "offset": 0,
        "slot": "0",
        "type": "t_mapping(t_address,t_uint256)"
      },
      {
        "astId": 21,
        "contract": "contracts/Exchange.sol:Exchange",
        "label": "_allowances",
        "offset": 0,
        "slot": "1",
        "type": "t_mapping(t_address,t_mapping(t_address,t_uint256))"
      },
      {
        "astId": 23,
        "contract": "contracts/Exchange.sol:Exchange",
        "label": "_totalSupply",
        "offset": 0,
        "slot": "2",
        "type": "t_uint256"
      },
      {
        "astId": 25,
        "contract": "contracts/Exchange.sol:Exchange",
        "label": "_name",
        "offset": 0,
        "slot": "3",
        "type": "t_string_storage"
      },
      {
        "astId": 27,
        "contract": "contracts/Exchange.sol:Exchange",
        "label": "_symbol",
        "offset": 0,
        "slot": "4",
        "type": "t_string_storage"
      },
      {
        "astId": 719,
        "contract": "contracts/Exchange.sol:Exchange",
        "label": "cryptoDevTokenAddress",
        "offset": 0,
        "slot": "5",
        "type": "t_address"
      }
    ],
    "types": {
      "t_address": {
        "encoding": "inplace",
        "label": "address",
        "numberOfBytes": "20"
      },
      "t_mapping(t_address,t_mapping(t_address,t_uint256))": {
        "encoding": "mapping",
        "key": "t_address",
        "label": "mapping(address => mapping(address => uint256))",
        "numberOfBytes": "32",
        "value": "t_mapping(t_address,t_uint256)"
      },
      "t_mapping(t_address,t_uint256)": {
        "encoding": "mapping",
        "key": "t_address",
        "label": "mapping(address => uint256)",
        "numberOfBytes": "32",
        "value": "t_uint256"
      },
      "t_string_storage": {
        "encoding": "bytes",
        "label": "string",
        "numberOfBytes": "32"
      },
      "t_uint256": {
        "encoding": "inplace",
        "label": "uint256",
        "numberOfBytes": "32"
      }
    }
  }
}